{
  "contractName": "Faucet",
  "abi": [
    {
      "inputs": [],
      "name": "numOfFunders",
      "outputs": [
        {
          "internalType": "uint256",
          "name": "",
          "type": "uint256"
        }
      ],
      "stateMutability": "view",
      "type": "function",
      "constant": true
    },
    {
      "inputs": [],
      "name": "owner",
      "outputs": [
        {
          "internalType": "address",
          "name": "",
          "type": "address"
        }
      ],
      "stateMutability": "view",
      "type": "function",
      "constant": true
    },
    {
      "inputs": [],
      "name": "test3",
      "outputs": [
        {
          "internalType": "uint256",
          "name": "",
          "type": "uint256"
        }
      ],
      "stateMutability": "pure",
      "type": "function",
      "constant": true
    },
    {
      "inputs": [],
      "name": "testNum",
      "outputs": [
        {
          "internalType": "uint256",
          "name": "",
          "type": "uint256"
        }
      ],
      "stateMutability": "view",
      "type": "function",
      "constant": true
    },
    {
      "stateMutability": "payable",
      "type": "receive",
      "payable": true
    },
    {
      "inputs": [
        {
          "internalType": "address",
          "name": "newOwner",
          "type": "address"
        }
      ],
      "name": "transferOwnership",
      "outputs": [],
      "stateMutability": "nonpayable",
      "type": "function"
    },
    {
      "inputs": [],
      "name": "emitLog",
      "outputs": [
        {
          "internalType": "bytes32",
          "name": "",
          "type": "bytes32"
        }
      ],
      "stateMutability": "pure",
      "type": "function",
      "constant": true
    },
    {
      "inputs": [],
      "name": "addFunds",
      "outputs": [],
      "stateMutability": "payable",
      "type": "function",
      "payable": true
    },
    {
      "inputs": [],
      "name": "antiWhale",
      "outputs": [],
      "stateMutability": "payable",
      "type": "function",
      "payable": true
    },
    {
      "inputs": [],
      "name": "test1",
      "outputs": [],
      "stateMutability": "nonpayable",
      "type": "function"
    },
    {
      "inputs": [],
      "name": "test2",
      "outputs": [],
      "stateMutability": "nonpayable",
      "type": "function"
    },
    {
      "inputs": [
        {
          "internalType": "uint256",
          "name": "withdrawAmount",
          "type": "uint256"
        }
      ],
      "name": "widthdraw",
      "outputs": [],
      "stateMutability": "nonpayable",
      "type": "function"
    },
    {
      "inputs": [
        {
          "internalType": "uint8",
          "name": "index",
          "type": "uint8"
        }
      ],
      "name": "getFunderAtIndex",
      "outputs": [
        {
          "internalType": "address",
          "name": "",
          "type": "address"
        }
      ],
      "stateMutability": "view",
      "type": "function",
      "constant": true
    },
    {
      "inputs": [],
      "name": "getAllFunders",
      "outputs": [
        {
          "internalType": "address[]",
          "name": "",
          "type": "address[]"
        }
      ],
      "stateMutability": "view",
      "type": "function",
      "constant": true
    }
  ],
  "bytecode": "0x608060405234801561001057600080fd5b50336000806101000a81548173ffffffffffffffffffffffffffffffffffffffff021916908373ffffffffffffffffffffffffffffffffffffffff1602179055506103e8600181905550610cfa806100696000396000f3fe6080604052600436106100c65760003560e01c80638da5cb5b1161007f578063af7f2c9b11610059578063af7f2c9b146101fd578063e0da260c14610228578063f2fde38b14610251578063f42c13bf1461027a576100cd565b80638da5cb5b1461019d578063a26759cb146101c8578063ae28f1ed146101d2576100cd565b80630a8e8e01146100d25780630a93cf33146100fd5780634dacf3f51461013a57806366e41cb7146101445780636b59084d1461015b5780636fbbb55d14610172576100cd565b366100cd57005b600080fd5b3480156100de57600080fd5b506100e76102a5565b6040516100f49190610a87565b60405180910390f35b34801561010957600080fd5b50610124600480360381019061011f91906108ce565b6102ae565b60405161013191906109ef565b60405180910390f35b6101426102ee565b005b34801561015057600080fd5b506101596102f0565b005b34801561016757600080fd5b50610170610380565b005b34801561017e57600080fd5b50610187610410565b6040516101949190610a0a565b60405180910390f35b3480156101a957600080fd5b506101b261055f565b6040516101bf91906109ef565b60405180910390f35b6101d0610583565b005b3480156101de57600080fd5b506101e76106a1565b6040516101f49190610a87565b60405180910390f35b34801561020957600080fd5b506102126106a7565b60405161021f9190610a87565b60405180910390f35b34801561023457600080fd5b5061024f600480360381019061024a91906108a5565b6106ad565b005b34801561025d57600080fd5b506102786004803603810190610273919061087c565b610744565b005b34801561028657600080fd5b5061028f610815565b60405161029c9190610a2c565b60405180910390f35b60006064905090565b6000600460008360ff16815260200190815260200160002060009054906101000a900473ffffffffffffffffffffffffffffffffffffffff169050919050565b565b60008054906101000a900473ffffffffffffffffffffffffffffffffffffffff1673ffffffffffffffffffffffffffffffffffffffff163373ffffffffffffffffffffffffffffffffffffffff161461037e576040517f08c379a000000000000000000000000000000000000000000000000000000000815260040161037590610a47565b60405180910390fd5b565b60008054906101000a900473ffffffffffffffffffffffffffffffffffffffff1673ffffffffffffffffffffffffffffffffffffffff163373ffffffffffffffffffffffffffffffffffffffff161461040e576040517f08c379a000000000000000000000000000000000000000000000000000000000815260040161040590610a47565b60405180910390fd5b565b6060600060025467ffffffffffffffff811115610456577f4e487b7100000000000000000000000000000000000000000000000000000000600052604160045260246000fd5b6040519080825280602002602001820160405280156104845781602001602082028036833780820191505090505b50905060005b6002548160ff16101561055757600460008260ff16815260200190815260200160002060009054906101000a900473ffffffffffffffffffffffffffffffffffffffff16828260ff168151811061050a577f4e487b7100000000000000000000000000000000000000000000000000000000600052603260045260246000fd5b602002602001019073ffffffffffffffffffffffffffffffffffffffff16908173ffffffffffffffffffffffffffffffffffffffff1681525050808061054f90610b88565b91505061048a565b508091505090565b60008054906101000a900473ffffffffffffffffffffffffffffffffffffffff1681565b6000339050600360008273ffffffffffffffffffffffffffffffffffffffff1673ffffffffffffffffffffffffffffffffffffffff16815260200190815260200160002060009054906101000a900460ff1661069e578060046000600254815260200190815260200160002060006101000a81548173ffffffffffffffffffffffffffffffffffffffff021916908373ffffffffffffffffffffffffffffffffffffffff1602179055506001600360008373ffffffffffffffffffffffffffffffffffffffff1673ffffffffffffffffffffffffffffffffffffffff16815260200190815260200160002060006101000a81548160ff0219169083151502179055506002600081548092919061069890610b3f565b91905055505b50565b60015481565b60025481565b8067016345785d8a00008111156106f9576040517f08c379a00000000000000000000000000000000000000000000000000000000081526004016106f090610a67565b60405180910390fd5b3373ffffffffffffffffffffffffffffffffffffffff166108fc839081150290604051600060405180830381858888f1935050505015801561073f573d6000803e3d6000fd5b505050565b60008054906101000a900473ffffffffffffffffffffffffffffffffffffffff1673ffffffffffffffffffffffffffffffffffffffff163373ffffffffffffffffffffffffffffffffffffffff16146107d2576040517f08c379a00000000000000000000000000000000000000000000000000000000081526004016107c990610a47565b60405180910390fd5b806000806101000a81548173ffffffffffffffffffffffffffffffffffffffff021916908373ffffffffffffffffffffffffffffffffffffffff16021790555050565b60007f48656c6c6f20576f726c64000000000000000000000000000000000000000000905090565b60008135905061084c81610c7f565b92915050565b60008135905061086181610c96565b92915050565b60008135905061087681610cad565b92915050565b60006020828403121561088e57600080fd5b600061089c8482850161083d565b91505092915050565b6000602082840312156108b757600080fd5b60006108c584828501610852565b91505092915050565b6000602082840312156108e057600080fd5b60006108ee84828501610867565b91505092915050565b6000610903838361090f565b60208301905092915050565b61091881610aec565b82525050565b61092781610aec565b82525050565b600061093882610ab2565b6109428185610aca565b935061094d83610aa2565b8060005b8381101561097e57815161096588826108f7565b975061097083610abd565b925050600181019050610951565b5085935050505092915050565b61099481610afe565b82525050565b60006109a7602183610adb565b91506109b282610be1565b604082019050919050565b60006109ca602383610adb565b91506109d582610c30565b604082019050919050565b6109e981610b28565b82525050565b6000602082019050610a04600083018461091e565b92915050565b60006020820190508181036000830152610a24818461092d565b905092915050565b6000602082019050610a41600083018461098b565b92915050565b60006020820190508181036000830152610a608161099a565b9050919050565b60006020820190508181036000830152610a80816109bd565b9050919050565b6000602082019050610a9c60008301846109e0565b92915050565b6000819050602082019050919050565b600081519050919050565b6000602082019050919050565b600082825260208201905092915050565b600082825260208201905092915050565b6000610af782610b08565b9050919050565b6000819050919050565b600073ffffffffffffffffffffffffffffffffffffffff82169050919050565b6000819050919050565b600060ff82169050919050565b6000610b4a82610b28565b91507fffffffffffffffffffffffffffffffffffffffffffffffffffffffffffffffff821415610b7d57610b7c610bb2565b5b600182019050919050565b6000610b9382610b32565b915060ff821415610ba757610ba6610bb2565b5b600182019050919050565b7f4e487b7100000000000000000000000000000000000000000000000000000000600052601160045260246000fd5b7f4f6e6c79206f776e65722063616e2063616c6c20746869732066756e6374696f60008201527f6e00000000000000000000000000000000000000000000000000000000000000602082015250565b7f43616e6e6f74207769746864726177206d6f7265207468616e20302e3120457460008201527f6865720000000000000000000000000000000000000000000000000000000000602082015250565b610c8881610aec565b8114610c9357600080fd5b50565b610c9f81610b28565b8114610caa57600080fd5b50565b610cb681610b32565b8114610cc157600080fd5b5056fea2646970667358221220629d2d56762bc8447366ee475da64e503407355299ca15e05649d006a9556d3264736f6c63430008040033",
  "immutableReferences": {},
  "source": "// SPDX-License-Identifier: MIT\npragma solidity >=0.4.22 <0.9.0;\n\nimport \"./Owned.sol\";\nimport \"./Logger.sol\";\nimport \"./IFaucet.sol\";\n\ncontract Faucet is Owned,Logger,IFaucet{\n    uint public numOfFunders;\n    mapping(address => bool) private fundersMap;\n    mapping(uint => address) private funders;\n    \n    modifier limitWithdraw(uint withdrawAmount){\n        require(withdrawAmount<= 100000000000000000, \"Cannot withdraw more than 0.1 Ether\");\n        _;\n    }\n\n    receive() external payable{}\n\n    function transferOwnership(address newOwner) external onlyOwner{\n        owner = newOwner;\n    }\n\n    function emitLog() public pure override returns(bytes32){\n        return \"Hello World\";\n    }\n\n    function addFunds() external override payable{\n        address _funder = msg.sender;\n        if(!fundersMap[_funder]){\n            funders[numOfFunders] = _funder;\n            fundersMap[_funder] = true;\n            numOfFunders++;\n        }\n            \n    }\n\n    function antiWhale() external override payable{}\n\n    function test1() external onlyOwner{}\n    function test2() external onlyOwner{} \n\n    function widthdraw(uint withdrawAmount) external override limitWithdraw(withdrawAmount){ \n        payable(msg.sender).transfer(withdrawAmount);\n    }\n\n    // view, view - read only call, no gas fee\n    // view - indicates that the function will not alter the storage\n    // pure - even more strict, indicate that it wont even read the storage state\n    // private - accessible only within the smart contract\n    // internal - can be accessible within smart contract and also derived smart contract\n\n    function getFunderAtIndex(uint8 index) external view returns(address){\n        return funders[index];\n    }\n\n    function getAllFunders() external view returns(address[] memory){\n        address[] memory _funders = new address[](numOfFunders);\n        for(uint8 i=0; i<numOfFunders; i++){\n            _funders[i] = funders[i];\n        }\n        return _funders;\n    }\n}",
  "sourcePath": "/home/jmint/blockchain/faucet/contracts/FaucetContract.sol",
  "compiler": {
    "name": "solc",
    "version": "0.8.4+commit.c7e474f2.Emscripten.clang"
  },
  "schemaVersion": "3.4.3",
  "updatedAt": "2021-12-14T07:05:42.038Z",
  "networkType": "ethereum",
  "devdoc": {
    "kind": "dev",
    "methods": {},
    "version": 1
  },
  "userdoc": {
    "kind": "user",
    "methods": {},
    "version": 1
  }
}